:020000040800F2
:1000000000500020950E0008E50C0008EB0C0008DD
:10001000F10C0008F70C0008FD0C000800000000BF
:10002000000000000000000000000000030D0008B8
:100030000F0D0008000000001B0D0008270D000830
:10004000DD0E0008DD0E0008DD0E0008DD0E0008E4
:10005000DD0E0008DD0E0008DD0E0008DD0E0008D4
:10006000DD0E0008DD0E0008DD0E0008DD0E0008C4
:10007000DD0E0008DD0E0008DD0E0008DD0E0008B4
:10008000DD0E0008DD0E0008350D0008DD0E00084D
:10009000DD0E0008DD0E0008DD0E0008DD0E000894
:1000A000DD0E0008DD0E0008DD0E0008DD0E000884
:1000B000DD0E0008D10D0008DD0E0008DD0E000881
:1000C000DD0E0008DD0E0008DD0E0008DD0E000864
:1000D000E50D0008F90D0008DD0E0008DD0E000832
:1000E0000D0E0008DD0E0008DD0E00080000000007
:1000F0000000000000000000000000000000000000
:0C01000000000000000000005FF808F1A3
:10010C0010B5054C237833B9044B13B10448AFF345
:10011C0000800123237010BD780000200000000037
:10012C004872000808B5034B1BB103490348AFF3F1
:10013C00008008BD000000007C0000204872000810
:10014C00034613F8012B002AFBD1181A013870470B
:10015C0080B582B000AF0023FB7101F06DFA00F0A6
:10016C0033F900F031FB00F0FFF900F003FB00F075
:10017C00C5F900F0B1FA00F083F900F02FFA06F09F
:10018C00B9FA804B00221A707E4B30229A700122F1
:10019C007C497D4805F0F9F87C4B1B78002B04D08A
:1001AC007A4B00221A7006F06BF8764B1B78DBB298
:1001BC00002B66D001227349734805F0E6F8714BA9
:1001CC001B78DBB2302B0CD100224021704802F09E
:1001DC000CFB00F043FF6F4B00221A60694B30227E
:1001EC009A70684B1B78DBB2312B09D10023FB7161
:1001FC0000224021664802F0F8FA674B01221A707F
:10020C00604B1B78DBB2322B0AD1002240216048B4
:10021C0002F0EBFA002000F0EDFF5F4B00221A70A9
:10022C00584B1B78DBB2332B2BD100224021584882
:10023C0002F0DBFA00233B601CE0584B1B880022C9
:10024C003968574801F07CF9554B1B78FF2B07D1C7
:10025C00534B5B78FF2B03D1514B9B78FF2B0FD06B
:10026C0064234FF480724E49474804F0FCFF3B680E
:10027C0001333B603B6840F63B729342DDD900E0B2
:10028C0000BF454B1B78DBB2002B54D0454B1B7881
:10029C00DBB2012B4FD1434B00221A70424B1B880F
:1002AC009AB2424B1A80424B1B68404A1178414A21
:1002BC00D1543F4B1B6801333C4A51783D4AD154D1
:1002CC003B4B1B6802333A4A1360394B1B68FF2BBC
:1002DC0031D940212E4802F0A0FAFB79002B0AD02C
:1002EC00334B00221A6064234FF480723149264844
:1002FC0004F0B9FF1FE0294B5A68264B1B689A4241
:10030C0010D9244B19684FF480730022294800F04F
:10031C00C9FE274B00221A601E4B1B6801331D4A75
:10032C00136008E0244B01221A701B4B00221A7038
:10033C00144B31229A70214B1B78002B3FF42CAFBD
:10034C001F4B1B7883F00103DBB2002B3FF424AF6F
:10035C001A4B00221A7005F0A5FD0346184605F04D
:10036C00BBFD062005F0A8FD0A4B00221A600022F6
:10037C004021074802F039FA00F070FE114B0122BF
:10038C001A7009E76C04002004020020D804002035
:10039C00000C014050020020480200208404002080
:1003AC0054030020490200207A0400207804002025
:1003BC004C0200205402002054040020550400205C
:1003CC00D90400201A0B002080B594B000AF07F1BF
:1003DC00280328220021184606F0BCFA07F1140362
:1003EC0000221A605A609A60DA601A613B1D002282
:1003FC001A605A609A60DA600123BB624FF4803352
:10040C00FB624FF400333B630123BB6302237B6429
:10041C004FF48033BB644FF4E013FB6407F1280303
:10042C00184602F02BFA0346002B01D000F042FADA
:10043C000F237B610223BB610023FB614FF48063BC
:10044C003B6200237B6207F114030221184602F081
:10045C0097FC0346002B01D000F02CFA02237B60A2
:10046C004FF40043FB603B1D184602F023FE03468D
:10047C00002B01D000F01EFA00BF5037BD4680BDE6
:10048C0080B584B000AF3B1D00221A605A609A60A0
:10049C00184B194A1A60174B00229A60154B002210
:1004AC001A73144B00221A75124B4FF40022DA61A6
:1004BC00104B00225A600F4B01221A610D4801F0BB
:1004CC0041F90346002B01D000F0F4F909237B60BD
:1004DC000123BB600023FB603B1D1946054801F05E
:1004EC00A1FB0346002B01D000F0E4F900BF10374C
:1004FC00BD4680BD940000200024014080B500AFB3
:10050C00174B184A1A60164B4FF482725A60144BF0
:10051C0000229A60124B0022DA60114B00221A6101
:10052C000F4B00225A610E4B4FF400729A610C4B28
:10053C002022DA610A4B00221A62094B00225A620D
:10054C00074B00229A62064B0A22DA62044802F038
:10055C0067FE0346002B01D000F0ACF900BF80BD54
:10056C00C40000200030014080B500AF194B1A4A7E
:10057C001A60184B00225A60164B00229A60154BD9
:10058C000022DA60134B00221A61124B00225A61CE
:10059C00104B4FF400729A610E4B00221A620D4BF5
:1005AC0000225A620B4B00229A620A4B0A22DA6230
:1005BC00084802F035FE0346002B01D000F07AF912
:1005CC00044B1B685A68034B1B6842F020025A60AC
:1005DC0000BF80BD1C0100200038004080B58EB0EB
:1005EC0000AF07F1280300221A605A609A60DA60A3
:1005FC0007F1200300221A605A603B1D00221A608A
:10060C005A609A60DA601A615A619A61314B4FF004
:10061C0080421A602F4B48225A602E4B00229A605F
:10062C002C4B40F2F512DA602A4B00221A61294B4E
:10063C0000229A61274803F053FE0346002B01D099
:10064C0000F038F94FF48053BB6207F128031946C8
:10065C00204804F0B5F90346002B01D000F02AF92C
:10066C001C4803F0DFFE0346002B01D000F022F9FA
:10067C000821184803F02EFF0346002B01D000F090
:10068C0019F900233B6200237B6207F12003194612
:10069C00104804F02BFD0346002B01D000F00AF9A2
:1006AC0060237B600123BB600223FB6000237B6122
:1006BC003B1D00221946074804F0C4F80346002BE2
:1006CC0001D000F0F7F8034800F06CFA00BF38379F
:1006DC00BD4680BD7401002080B586B000AF07F127
:1006EC00080300221A605A609A60DA603B460022C6
:1006FC001A605A601D4B1E4A1A601C4B48225A60E5
:10070C001A4B00229A60194B4FF4FA72DA60174BAD
:10071C0000221A61154B00229A61144803F0E0FD87
:10072C000346002B01D000F0C5F84FF48053BB609A
:10073C0007F1080319460D4804F042F90346002B53
:10074C0001D000F0B7F830233B6000237B603B46C0
:10075C001946064804F0CAFC0346002B01D000F0F1
:10076C00A9F800BF1837BD4680BD00BFBC010020F2
:10077C000004004080B500AF114B124A1A60104BB8
:10078C004FF461225A600E4B00229A600C4B0022EF
:10079C00DA600B4B00221A61094B0C225A61084B90
:1007AC0000229A61064B0022DA61054804F00EFD26
:1007BC000346002B01D000F07DF800BF80BD00BFC8
:1007CC00040200200038014080B588B000AF07F16A
:1007DC00100300221A605A609A60DA60314B9B69F0
:1007EC00304A43F0200393612E4B9B6903F02003A6
:1007FC00FB60FB682B4B9B692A4A43F00403936113
:10080C00284B9B6903F00403BB60BB68254B9B69B9
:10081C00244A43F008039361224B9B6903F00803BD
:10082C007B607B68002218211F4801F0DEFF00224C
:10083C0040211E4801F0D9FF18233B6101237B6145
:10084C000023BB610223FB6107F110031946164814
:10085C0001F074FD4FF480533B61154B7B61002319
:10086C00BB6107F110031946104801F067FD4023E6
:10087C003B6101237B610023BB610223FB6107F118
:10088C0010031946094801F059FD002201212820C6
:10089C0001F05FFC282001F078FC00BF2037BD463A
:1008AC0080BD00BF0010024000080140000C014058
:1008BC000000211080B400AF72B600BFFEE700004C
:1008CC0080B485B000AF154B9B69144A43F001030B
:1008DC009361124B9B6903F00103BB60BB680F4B28
:1008EC00DB690E4A43F08053D3610C4BDB6903F098
:1008FC0080537B607B680A4B5B68FB60FB6823F072
:10090C00E063FB60FB6843F00073FB60044AFB6828
:10091C00536000BF1437BD4680BC704700100240C6
:10092C000000014080B588B000AF786007F110037B
:10093C0000221A605A609A60DA607B681B68184A59
:10094C00934229D1174B9B69164A43F40073936168
:10095C00144B9B6903F40073FB60FB68114B9B69A0
:10096C00104A43F0080393610E4B9B6903F0080394
:10097C00BB60BB6802233B6103237B6107F110035F
:10098C001946094801F0DAFC00220221122001F07C
:10099C00E0FB122001F0F9FB00BF2037BD4680BD03
:1009AC000024014000100240000C014080B58AB0C8
:1009BC0000AF786007F1180300221A605A609A6041
:1009CC00DA607B681B683B4A934230D13A4B9B6997
:1009DC00394A43F480539361374B9B6903F480533A
:1009EC007B617B69344B9B69334A43F0040393610D
:1009FC00314B9B6903F004033B613B69A023BB6152
:100A0C000223FB6103237B6207F1180319462B4871
:100A1C0001F094FC4023BB610023FB6100233B628B
:100A2C0007F118031946254801F088FC3EE07B6865
:100A3C001B68234A934239D11F4BDB691E4A43F48E
:100A4C008043D3611C4BDB6903F48043FB60FB6880
:100A5C00194B9B69184A43F008039361164B9B6929
:100A6C0003F00803BB60BB684FF42043BB61002359
:100A7C00FB6100233B6207F118031946114801F092
:100A8C005DFC4FF48043BB610223FB6103237B625B
:100A9C0007F1180319460B4801F050FC0022012104
:100AAC00242001F056FB242001F06FFB00BF2837F7
:100ABC00BD4680BD003001400010024000080140DE
:100ACC0000380040000C014080B582B000AF786067
:100ADC007B681B68124A93420AD1124B9B69114ADC
:100AEC0023F480539361E0210F4801F0ABFD12E039
:100AFC007B681B680D4A93420DD10A4BDB69094A8E
:100B0C0023F48043D3614FF46041094801F09AFD0E
:100B1C00242001F048FB00BF0837BD4680BD00BF54
:100B2C000030014000100240000801400038004035
:100B3C00000C014080B584B000AF78607B681B6806
:100B4C00B3F1804F0CD1154BDB69144A43F0010310
:100B5C00D361124BDB6903F00103FB60FB6818E007
:100B6C007B681B680E4A934213D10C4BDB690B4A12
:100B7C0043F00203D361094BDB6903F00203BB6052
:100B8C00BB68002202211D2001F0E3FA1D2001F0B8
:100B9C00FCFA00BF1037BD4680BD00BF00100240FC
:100BAC000004004080B588B000AF786007F10C03FA
:100BBC0000221A605A609A60DA607B681B68B3F195
:100BCC00804F2AD1174B9B69164A43F0040393615B
:100BDC00144B9B6903F00403BB60BB684FF40043E8
:100BEC00FB6002233B610223BB6107F10C03194636
:100BFC000D4801F0A3FB0D4B5B68FB61FB6923F413
:100C0C004073FB61FB6943F0E063FB61FB6943F4F8
:100C1C008073FB61054AFB69536000BF2037BD46FA
:100C2C0080BD00BF001002400008014000000140E0
:100C3C0080B588B000AF786007F1100300221A600D
:100C4C005A609A60DA607B681B68204A934239D1FB
:100C5C001F4B9B691E4A43F4804393611C4B9B6959
:100C6C0003F48043FB60FB68194B9B69184A43F003
:100C7C0004039361164B9B6903F00403BB60BB68D0
:100C8C004FF400733B6102237B610323FB6107F18B
:100C9C00100319460F4801F051FB4FF480633B6180
:100CAC0000237B610023BB6107F11003194609483F
:100CBC0001F044FB00220221252001F04AFA2520F4
:100CCC0001F063FA00BF2037BD4680BD00380140FB
:100CDC00001002400008014080B400AFFEE780B471
:100CEC0000AFFEE780B400AFFEE780B400AFFEE7D4
:100CFC0080B400AFFEE780B400AF00BFBD4680BC3F
:100D0C00704780B400AF00BFBD4680BC704780B454
:100D1C0000AF00BFBD4680BC704780B500AF00F08F
:100D2C00D1FC00BF80BD000080B500AF1D4800F0B5
:100D3C0097FE03469AB21C4B1A801C4B1B78DBB2F5
:100D4C00002B02D01A4B01221A701A4B1B7883F01D
:100D5C000103DBB2002B1FD0174B1B78DAB2174BF9
:100D6C00A3FB0213D9080B469B000B445B00D31A60
:100D7C00DAB2114B1A70104B1B78DBB21A460A4BC5
:100D8C001B8899B20E4B23F812100B4B1B78DBB25D
:100D9C000133DAB2084B1A70024800F06DFE00BF46
:100DAC0080BD00BF940000207A040020480200207F
:100DBC0049020020200B00207C040020CDCCCCCCA0
:100DCC005804002080B500AF024803F033FC00BF8C
:100DDC0080BD00BFBC01002080B500AF024802F00E
:100DEC004FFF00BF80BD00BF1C01002080B500AFCD
:100DFC00024804F0FBFA00BF80BD00BF04020020D3
:100E0C0080B500AF4FF4805001F020FD00BF80BDD5
:100E1C0080B586B000AF7860144A154BD31A7B614D
:100E2C007B693B61134B1B68002B02D1114B124A9F
:100E3C001A60104B1A687B6813443A699A4207D2BD
:100E4C0005F050FD03460C221A604FF0FF3309E009
:100E5C00084B1B68FB60074B1A687B681344054AF8
:100E6C001360FB6818461837BD4680BD0050002043
:100E7C000004000080040020380B002080B400AF78
:100E8C0000BFBD4680BC70470C480D490D4A00237D
:100E9C0002E0D458C4500433C4188C42F9D30A4A23
:100EAC000A4C002301E013600432A242FBD3FFF78B
:100EBC00E5FF05F01DFDFFF74BF970470000002022
:100ECC0078000020007A000878000020340B002005
:100EDC00FEE780B483B000AF00237B6003E000BF6B
:100EEC007B6801337B607B68312BF8D900BF00BF76
:100EFC000C37BD4680BC704780B582B000AF7860BF
:100F0C000B467B807A8841F288337968034802F07B
:100F1C0033FA00BF0837BD4680BD00BFC4000020B7
:100F2C0080B582B000AF78600B467B807A8841F246
:100F3C0088337968034802F05BFB00BF0837BD4675
:100F4C0080BD00BFC400002080B500AF002210217E
:100F5C00094801F04AFC094B66221A70074B99228A
:100F6C005A7002210548FFF7C7FF012210210248E1
:100F7C0001F03BFC00BF80BD00080140C80400200C
:100F8C0080B500AF00221021084801F02EFC084B60
:100F9C0006221A7001210648FFF7AEFF012210212C
:100FAC00024801F022FC00BF80BD00BF00080140D8
:100FBC00C804002080B500AF00221021084801F0C1
:100FCC0014FC084B04221A7001210648FFF794FF09
:100FDC0001221021024801F008FC00BF80BD00BFB7
:100FEC0000080140C804002080B483B000AF034661
:100FFC00FB7100BF0C37BD4680BC704780B500AF9D
:10100C00FFF767FF00221021114801F0EEFB114B96
:10101C0005221A7001210F48FFF76EFF01210D48C0
:10102C00FFF77EFF0B4B1A780B4B83F82020FFF752
:10103C0050FF094B93F8203003F00103002BEDD146
:10104C0001221021024801F0D0FB00BF80BD00BF7F
:10105C0000080140C80400208404002080B500AFC3
:10106C00FFF7CCFFFFF78CFF002210210B4801F09B
:10107C00BCFB0B4BC7221A7001210948FFF73CFF40
:10108C0001221021054801F0B0FBFFF7B7FFFFF775
:10109C0091FF0F20FFF7A8FF00BF80BD00080140A3
:1010AC00C804002080B584B000AFF860B9607A60E5
:1010BC003B60394B1B881A463B68934202D9364B2E
:1010CC001B883B607A683B681344334A128893420E
:1010DC0005D9314B1B881A467B68D31A3B602E4BC3
:1010EC001B881A46BB6802FB03F37A681344BB6087
:1010FC00FFF784FF0020FFF777FFFFF741FF002287
:10110C001021264801F071FB254B02221A70224B4C
:10111C00DB7F002B17D0BB681B0EDAB2204B5A704A
:10112C00BB681B0CDAB21E4B9A70BB681B0ADAB296
:10113C001B4BDA70BB68DAB2194B1A7105211848CF
:10114C00FFF7DAFE11E0BB681B0CDAB2144B5A70D5
:10115C00BB681B0ADAB2124B9A70BB68DAB2104B3E
:10116C00DA7004210E48FFF7C7FE3B689BB21946A4
:10117C00F868FFF7C1FE01221021084801F035FB89
:10118C00FFF73CFFFFF716FF0F20FFF72DFF00BF07
:10119C001037BD4680BD00BF84040020000801400C
:1011AC00C804002080B582B000AF104B9F221A708B
:1011BC00002210210E4801F018FB01210B48FFF70B
:1011CC009BFE3B1D03211846FFF7AAFE01221021AE
:1011DC00074801F00AFB3B791A047B791B02134385
:1011EC00BA79134318460837BD4680BDC8040020A1
:1011FC000008014080B584B000AF0346FB71FFF7D7
:10120C00D1FFF860642000F079FAFFF79DFE6420AE
:10121C0000F074FAFB79002B16D04FF480530222A5
:10122C005049514804F01FF8FA685049504805F0ED
:10123C0099FB4F48FEF784FF03469AB24FF4805354
:10124C004B49494804F00FF8FB689BB2FB60494BD3
:10125C000022DA77FB68A3F58043113B092B70D889
:10126C0001A252F823F000BF3F1300082F1300080F
:10127C001F1300080F130008FF120008EF120008DC
:10128C00DF120008CD120008B51200089D120008EC
:10129C00384B0122DA77374B4FF480625A6136496A
:1012AC00334805F05FFB7DE0324B0122DA77314B9E
:1012BC004FF400725A6131492D4805F053FB71E02F
:1012CC002C4B4FF480725A612D49294805F04AFB8A
:1012DC0068E0284B80225A612A49254805F042FBD8
:1012EC0060E0244B40225A612749214805F03AFB23
:1012FC0058E0204B20225A6124491D4805F032FB4E
:10130C0050E01C4B10225A612149194805F02AFB68
:10131C0048E0184B08225A611E49154805F022FB7B
:10132C0040E0144B04225A611B49114805F01AFB8A
:10133C0038E0104B02225A6118490D4805F012FB97
:10134C0030E017490A4805F00DFB0948FEF7F8FE96
:10135C0003469AB24FF480530549034803F083FFC8
:10136C00D6E000BF047400080402002008740008D2
:10137C00A804002084040020147400082C740008B5
:10138C00447400085C740008747400088C740008C1
:10139C00A4740008BC740008D4740008EC74000831
:1013AC0004750008FB79002B0AD05B48FEF7C8FED9
:1013BC0003469AB24FF480535749584803F053FFF1
:1013CC00574B4FF480721A80554B4FF480529A60F1
:1013DC00534B5B691B01524AD360514BDB68504A3B
:1013EC00926802FB03F34E4A1288B3FBF2F34C4AA9
:1013FC0053604B4B9B681B01494A1361484BDB689C
:10140C00474A926802FB03F39B0A454A9361FB79B6
:10141C00002B7DD0424B1B881A4642493E4805F0B2
:10142C00A1FA3D48FEF78CFE03469AB24FF4805366
:10143C0039493A4803F017FF394B5B681A463A4969
:10144C00354805F08FFA3448FEF77AFE03469AB217
:10145C004FF480533049314803F005FF304B9B6803
:10146C001A4632492C4805F07DFA2B48FEF768FEE7
:10147C0003469AB24FF480532749284803F0F3FEF1
:10148C00274BDB681A462A49234805F06BFA224899
:10149C00FEF756FE03469AB24FF480531E491F487E
:1014AC0003F0E1FE1E4B1B691A4622491A4805F04F
:1014BC0059FA1948FEF744FE03469AB24FF480538A
:1014CC001549164803F0CFFE154B5B691A461A49AD
:1014DC00114805F047FA1048FEF732FE03469AB25F
:1014EC004FF480530C490D4803F0BDFE0C4B9B6927
:1014FC001A461249084805F035FA0748FEF720FE4F
:10150C0003469AB24FF480530349044803F0ABFEF0
:10151C001037BD4680BD00BFA80400200402002087
:10152C008404002018750008307500084475000804
:10153C00B07300085C7500087475000888750008A5
:10154C0080B584B000AFF860B9607A603B60374B0F
:10155C001B881A463B68934202D9344B1B883B606C
:10156C007A683B681344314A1288934205D92F4B51
:10157C001B881A467B68D31A3B602C4B1B881A4677
:10158C00BB6802FB03F37A681344BB60284B0B2245
:10159C001A70264BDB7F002B1FD0BB681B0EDAB2F8
:1015AC00234B5A70BB681B0CDAB2214B9A70BB6888
:1015BC001B0ADAB21E4BDA70BB68DAB21C4B1A711A
:1015CC001B4B00225A71002210211A4801F00DF910
:1015DC0006211748FFF790FC19E0BB681B0CDAB228
:1015EC00134B5A70BB681B0ADAB2114B9A70BB686A
:1015FC00DAB20F4BDA700E4B00221A710022102156
:10160C000C4801F0F2F805210948FFF775FC3B681E
:10161C009BB21946F868FFF783FC0122102105489C
:10162C0001F0E3F800BF1037BD4680BD84040020F4
:10163C00C80400200008014080B500AF084B1B68AF
:10164C00074A43F010031360032000F077FD0020DD
:10165C0000F008F8FFF734F90023184680BD00BFEE
:10166C000020024080B582B000AF7860124B1A683F
:10167C00124B1B7819464FF47A73B3FBF1F3B2FBA0
:10168C00F3F3184600F09DFD0346002B01D0012317
:10169C000EE07B680F2B0AD8002279684FF0FF30E0
:1016AC0000F057FD064A7B681360002300E001231D
:1016BC0018460837BD4680BD0000002008000020F9
:1016CC000400002080B400AF054B1B781A46054B74
:1016DC001B681344034A136000BFBD4680BC7047AF
:1016EC0008000020D404002080B400AF024B1B681B
:1016FC001846BD4680BC7047D404002080B584B029
:10170C0000AF7860FFF7F0FFB8607B68FB60FB68A8
:10171C00B3F1FF3F05D00A4B1B781A46FB68134404
:10172C00FB6000BFFFF7E0FF0246BB68D31AFA6804
:10173C009A42F7D800BF00BF1037BD4680BD00BF2E
:10174C000800002080B586B000AF78600023FB75E0
:10175C0000233B610023BB600023FB607B68002BF4
:10176C0001D10123BEE07B689B68002B7B689B6AE0
:10177C00002B09D17B680022DA627B68002283F897
:10178C0024207868FFF7CEF8786800F09DFB0346BC
:10179C00FB757B689B6A03F01003002B40F099806B
:1017AC00FB7D002B40F095807B689B6A23F488536B
:1017BC0023F0020343F002027B689A627B685A684A
:1017CC007B68DB691A437B681B7B5B001343BA683D
:1017DC001343BB607B689B68B3F5807F03D07B6849
:1017EC009B68012B02D14FF4807300E000233A690F
:1017FC0013433B617B681B7D012B19D17B681B7BE1
:10180C00002B09D17B689B69013B5A033B6913434D
:10181C0043F400633B610BE07B689B6A43F020025E
:10182C007B689A627B68DB6A43F001027B68DA6250
:10183C007B681B685B6823F469417B681B683A69A9
:10184C000A435A607B681B689A68284B13407A6875
:10185C001268B9680B4393607B689B68B3F5807F13
:10186C0003D07B689B68012B04D17B681B69013B0F
:10187C001B05FB607B681B68DB6A23F470017B68CB
:10188C001B68FA680A43DA627B681B689A68184B13
:10189C001340BA689A420BD17B680022DA627B68EB
:1018AC009B6A23F0030343F001027B689A6218E001
:1018BC007B689B6A23F0120343F010027B689A62E8
:1018CC007B68DB6A43F001027B68DA620123FB75FB
:1018DC0007E07B689B6A43F010027B689A620123E5
:1018EC00FB75FB7D18461837BD4680BDFDF7E1FF43
:1018FC00FE0E1FFF80B584B000AF78600023FB7331
:10190C007B6893F82430012B01D10223A0E07B6883
:10191C00012283F82420786800F07CFA0346FB73DC
:10192C00FB7B002B40F08F807B689B6A23F47063F9
:10193C0023F0010343F480727B689A627B681B6816
:10194C00454A934205D1454B5B6803F47023002B49
:10195C0015D17B689B6A23F480127B689A627B6842
:10196C001B685B6803F48063002B26D07B689B6A42
:10197C0023F4405343F480527B689A621DE07B68E9
:10198C009B6A43F480127B689A627B681B68334ABB
:10199C00934204D07B681B682F4A93420DD12F4B86
:1019AC005B6803F48063002B07D07B689B6A23F48D
:1019BC00405343F480527B689A627B689B6A03F4C1
:1019CC008053002B06D07B68DB6A23F006027B6811
:1019DC00DA6202E07B680022DA627B68002283F81C
:1019EC0024207B681B686FF002021A607B681B68FE
:1019FC005A687B681B6842F020025A607B681B683F
:101A0C009B6803F46023B3F5602F13D17B681B68CC
:101A1C00114A934205D1114B5B6803F47023002BE0
:101A2C0008D17B681B689A687B681B6842F4A0022B
:101A3C009A600CE07B681B689A687B681B6842F4B0
:101A4C0080129A6003E07B68002283F82420FB7BE1
:101A5C0018461037BD4680BD0028014000240140C7
:101A6C0080B483B000AF78607B681B68DB6C184671
:101A7C000C37BD4680BC704780B582B000AF786033
:101A8C007B681B685B6803F02003202B40D17B68CC
:101A9C001B681B6803F00203022B39D17B689B6A1D
:101AAC0003F01003002B05D17B689B6A43F4007292
:101ABC007B689A627B681B689B6803F46023B3F5B0
:101ACC00602F1DD17B681B7B002B19D17B681B6899
:101ADC005A687B681B6822F020025A607B689B6AFC
:101AEC0023F480727B689A627B689B6A03F4805350
:101AFC00002B05D17B689B6A43F001027B689A62DC
:101B0C00786800F07CF87B681B686FF012021A6032
:101B1C007B681B685B6803F08003802B4FD17B686C
:101B2C001B681B6803F00403042B48D17B689B6A79
:101B3C0003F01003002B05D17B689B6A43F4005221
:101B4C007B689A627B681B689B6803F4E043B3F57F
:101B5C00E04F12D07B681B685B6803F48063002B3A
:101B6C0025D17B681B689B6803F46023B3F5602F59
:101B7C001DD17B681B7B002B19D17B681B685A68B5
:101B8C007B681B6822F080025A607B689B6A23F496
:101B9C0080527B689A627B689B6A03F48073002B8B
:101BAC0005D17B689B6A43F001027B689A62786876
:101BBC0000F0CBF97B681B686FF00C021A607B6835
:101BCC001B685B6803F04003402B14D17B681B68D7
:101BDC001B6803F00103012B0DD17B689B6A43F456
:101BEC0080327B689A62786800F012F87B681B6818
:101BFC006FF001021A6000BF0837BD4680BD80B48B
:101C0C0083B000AF786000BF0C37BD4680BC704716
:101C1C0080B483B000AF786000BF0C37BD4680BC89
:101C2C007047000080B485B000AF78603960002345
:101C3C00FB730023BB607B6893F82430012B01D12C
:101C4C000223DCE07B68012283F824203B685B687C
:101C5C00062B1CD87B681B68596B3B685A6813466B
:101C6C009B001344053B1F2202FA03F3DB4319408C
:101C7C003B6818683B685A6813469B001344053B45
:101C8C0000FA03F27B681B680A435A633CE03B682A
:101C9C005B680C2B1CD87B681B68196B3B685A68FB
:101CAC0013469B001344233B1F2202FA03F3DB432E
:101CBC0019403B6818683B685A6813469B001344EC
:101CCC00233B00FA03F27B681B680A431A631BE090
:101CDC007B681B68D96A3B685A6813469B0013449F
:101CEC00413B1F2202FA03F3DB4319403B6818689F
:101CFC003B685A6813469B001344413B00FA03F2BD
:101D0C007B681B680A43DA623B681B68092B1CD989
:101D1C007B681B68D9683B681A6813465B001344E0
:101D2C001E3B072202FA03F3DB4319403B68986819
:101D3C003B681A6813465B0013441E3B00FA03F21F
:101D4C007B681B680A43DA6019E07B681B681969B9
:101D5C003B681A6813465B001344072202FA03F32C
:101D6C00DB4319403B6898683B681A6813465B0074
:101D7C00134400FA03F27B681B680A431A613B6840
:101D8C001B68102B03D03B681B68112B32D17B686E
:101D9C001B681D4A934225D17B681B689B6803F422
:101DAC000003002B26D17B681B689A687B681B6834
:101DBC0042F400029A603B681B68102B1AD1134B3B
:101DCC001B68134AA2FB03239A0C13469B00134473
:101DDC005B00BB6002E0BB68013BBB60BB68002BD7
:101DEC00F9D107E07B689B6A43F020027B689A621A
:101DFC000123FB737B68002283F82420FB7B1846AD
:101E0C001437BD4680BC7047002401400000002000
:101E1C0083DE1B4380B584B000AF78600023FB6089
:101E2C000023BB607B681B689B6803F00103012BDC
:101E3C0040D07B681B689A687B681B6842F0010283
:101E4C009A601F4B1B681F4AA2FB03239B0CBB60B1
:101E5C0002E0BB68013BBB60BB68002BF9D1FFF70C
:101E6C0043FCF8601FE0FFF73FFC0246FB68D31A07
:101E7C00022B18D97B681B689B6803F00103012BAC
:101E8C0011D07B689B6A43F010027B689A627B6876
:101E9C00DB6A43F001027B68DA627B68002283F81C
:101EAC002420012307E07B681B689B6803F0010377
:101EBC00012BD8D1002318461037BD4680BD00BF7A
:101ECC000000002083DE1B4380B584B000AF786037
:101EDC000023FB607B681B689B6803F00103012BEC
:101EEC002ED17B681B689A687B681B6822F0010204
:101EFC009A60FFF7F9FBF8601BE0FFF7F5FB024671
:101F0C00FB68D31A022B14D97B681B689B6803F0FF
:101F1C000103012B0DD17B689B6A43F010027B6897
:101F2C009A627B68DB6A43F001027B68DA62012308
:101F3C0007E07B681B689B6803F00103012BDCD076
:101F4C00002318461037BD4680BD80B483B000AF67
:101F5C00786000BF0C37BD4680BC704780B485B03C
:101F6C0000AF78607B6803F00703FB600C4BDB6809
:101F7C00BB60BA684FF6FF031340BB60FB681A02E4
:101F8C00BB68134343F0BF6343F40033BB60044AA4
:101F9C00BB68D36000BF1437BD4680BC704700BF20
:101FAC0000ED00E080B400AF044BDB681B0A03F0CB
:101FBC0007031846BD4680BC704700BF00ED00E02B
:101FCC0080B483B000AF0346FB7197F90730002B48
:101FDC000BDBFB7903F01F02064997F907305B090D
:101FEC00012000FA02F241F8232000BF0C37BD4655
:101FFC0080BC704700E100E080B483B000AF0346C2
:10200C00FB7197F90730002B12DBFB7903F01F02F1
:10201C000A4997F907305B09012000FA02F22033D4
:10202C0041F82320BFF34F8F00BFBFF36F8F00BF6A
:10203C0000BF0C37BD4680BC704700BF00E100E01C
:10204C0080B483B000AF03463960FB7197F9073059
:10205C00002B0ADB3B68DAB20C4997F90730120106
:10206C00D2B20B4483F800230AE03B68DAB2084989
:10207C00FB7903F00F03043B1201D2B20B441A7626
:10208C0000BF0C37BD4680BC704700BF00E100E0CC
:10209C0000ED00E080B489B000AFF860B9607A6000
:1020AC00FB6803F00703FB61FB69C3F10703042B17
:1020BC0028BF0423BB61FB690433062B02D9FB69DF
:1020CC00033B00E000237B614FF0FF32BB6902FA57
:1020DC0003F3DA43BB681A407B699A404FF0FF3137
:1020EC007B6901FA03F3D9437B680B401343184611
:1020FC002437BD4680BC704780B582B000AF786095
:10210C007B68013BB3F1807F01D301230FE00A4AC6
:10211C007B68013B53600F214FF0FF30FFF790FFBE
:10212C00054B00229A60044B07221A6000231846C4
:10213C000837BD4680BD00BF10E000E080B582B01E
:10214C0000AF78607868FFF709FF00BF0837BD461D
:10215C0080BD80B586B000AF0346B9607A60FB7372
:10216C0000237B61FFF71EFF78617A68B968786994
:10217C00FFF790FF024697F90F3011461846FFF70C
:10218C005FFF00BF1837BD4680BD80B582B000AF81
:10219C000346FB7197F907301846FFF711FF00BF94
:1021AC000837BD4680BD80B582B000AF0346FB71D9
:1021BC0097F907301846FFF71FFF00BF0837BD46D9
:1021CC0080BD80B582B000AF78607868FFF794FF6F
:1021DC00034618460837BD4680BD80B485B000AFB5
:1021EC0078600023FB737B6893F82130022B08D0B6
:1021FC007B6804229A637B68002283F820200123E9
:10220C0020E07B681B681A687B681B6822F00E0252
:10221C001A607B681B681A687B681B6822F00102D5
:10222C001A607B681A6C7B68DB6B012101FA02F285
:10223C005A607B68012283F821207B68002283F896
:10224C002020FB7B18461437BD4680BC704700002D
:10225C0080B584B000AF78600023FB737B6893F883
:10226C002130022B05D07B6804229A630123FB7377
:10227C0051E07B681B681A687B681B6822F00E02B1
:10228C001A607B681B681A687B681B6822F0010265
:10229C001A607B681B68224A934229D07B681B68B2
:1022AC00204A934222D07B681B681F4A93421AD063
:1022BC007B681B681D4A934212D07B681B681C4AC2
:1022CC0093420AD07B681B681A4A934202D14FF49E
:1022DC0080130EE04FF080730BE04FF4803308E076
:1022EC004FF4805305E04FF4807302E0102300E0BC
:1022FC000123114A53607B68012283F821207B68FB
:10230C00002283F820207B685B6B002B03D07B685A
:10231C005B6B78689847FB7B18461037BD4680BDD1
:10232C00080002401C000240300002404400024001
:10233C00580002406C0002400000024080B48BB098
:10234C0000AF7860396000237B6200233B6269E157
:10235C0001227B6A02FA03F3FB613B681B68FA6992
:10236C001340BB61BA69FB699A4240F058813B68E3
:10237C005B689A4A93425ED0984A934275D8984AC1
:10238C00934258D0964A93426FD8964A934252D071
:10239C00944A934269D8944A93424CD0924A9342BD
:1023AC0063D8924A934246D0904A93425DD8122BFE
:1023BC002AD8122B59D801A252F823F04324000832
:1023CC001D2400082F24000871240008772400081D
:1023DC007724000877240008772400087724000865
:1023EC007724000877240008772400087724000855
:1023FC007724000877240008772400087724000845
:10240C002524000839240008794A934213D02CE083
:10241C003B68DB683B6229E03B68DB6804333B626A
:10242C0024E03B68DB6808333B621FE03B68DB68F9
:10243C000C333B621AE03B689B68002B02D10423EF
:10244C003B6213E03B689B68012B05D108233B6280
:10245C007B68FA691A6109E008233B627B68FA69B8
:10246C005A6103E000233B6200E000BFBB69FF2B15
:10247C0001D87B6801E07B6804337B61BB69FF2B6F
:10248C0002D87B6A9B0002E07B6A083B9B003B61A5
:10249C007B691A680F213B6901FA03F3DB431A408D
:1024AC00396A3B6901FA03F31A437B691A603B688A
:1024BC005B6803F08053002B00F0B1804D4B9B699F
:1024CC004C4A43F0010393614A4B9B6903F00103AF
:1024DC00BB60BB68484A7B6A9B08023352F82330C6
:1024EC00FB607B6A03F003039B000F2202FA03F3E9
:1024FC00DB43FA681340FB607B68404A934213D07D
:10250C007B683F4A93420DD07B683E4A934207D08A
:10251C007B683D4A934201D1032306E0042304E087
:10252C00022302E0012300E000237A6A02F0030296
:10253C0092009340FA681343FB602F497B6A9B0817
:10254C000233FA6841F823203B685B6803F480335C
:10255C00002B06D02D4B1A682C49BB6913430B601A
:10256C0006E02A4B1A68BB69DB43284913400B6011
:10257C003B685B6803F40033002B06D0234B5A688E
:10258C002249BB6913434B6006E0204B5A68BB6978
:10259C00DB431E4913404B603B685B6803F48013BC
:1025AC00002B06D0194B9A681849BB6913438B60F2
:1025BC0006E0164B9A68BB69DB43144913408B60E9
:1025CC003B685B6803F40013002B21D00F4BDA68D7
:1025DC000E49BB691343CB6021E000BF00003210F1
:1025EC000000311000002210000021100000121019
:1025FC0000001110001002400000014000080140D2
:10260C00000C014000100140001401400004014086
:10261C000B4BDA68BB69DB4309491340CB607B6A1F
:10262C0001337B623B681A687B6A22FA03F3002B46
:10263C007FF48EAE00BF00BF2C37BD4680BC704708
:10264C000004014080B489B000AF78603960002389
:10265C00FB619AE00122FB6902FA03F33A6813402A
:10266C00BB61BB69002B00F08D804E4AFB699B0857
:10267C00023352F823307B61FB6903F003039B00A8
:10268C000F2202FA03F37A6913407B617B68464A96
:10269C00934213D07B68454A93420DD07B68444AE1
:1026AC00934207D07B68434A934201D1032306E04F
:1026BC00042304E0022302E0012300E00023FA6972
:1026CC0002F00302920093407A699A4232D1FB697C
:1026DC0003F003039B000F2202FA03F37B61314AE0
:1026EC00FB699B08023352F823107B69DA432D48AF
:1026FC00FB699B080A40023340F823202E4B1A68D2
:10270C00BB69DB432C4913400B602B4B5A68BB69EC
:10271C00DB43294913404B60274B9A68BB69DB4369
:10272C00254913408B60244BDA68BB69DB43224993
:10273C001340CB60BB69FF2B01D87B6801E07B6841
:10274C0004333B61BB69FF2B02D8FB699B0002E0A1
:10275C00FB69083B9B00FB603B691A680F21FB6817
:10276C0001FA03F3DB431A400421FB6801FA03F37B
:10277C001A433B691A607B68DA68BB69DB431A4011
:10278C007B68DA60FB690133FB613A68FB6922FA0A
:10279C0003F3002B7FF45EAF00BF00BF2437BD46B0
:1027AC0080BC70470000014000080140000C014053
:1027BC0000100140001401400004014080B485B0B9
:1027CC0000AF78600B467B807B689A687B881340EF
:1027DC00002B02D00123FB7301E00023FB73FB7B76
:1027EC0018461437BD4680BC704780B483B000AF28
:1027FC0078600B467B8013467B707B78002B03D074
:10280C007A887B681A6103E07B881A047B681A61FA
:10281C0000BF0C37BD4680BC704780B485B000AF9C
:10282C0078600B467B807B68DB68FB607A88FB6892
:10283C0013401A04FB68D9437B880B401A437B680E
:10284C001A6100BF1437BD4680BC704780B582B09A
:10285C0000AF0346FB80084B5A69FB881340002BE2
:10286C0006D0054AFB885361FB88184603F0F0F943
:10287C0000BF0837BD4680BD0004014080B586B05E
:10288C0000AF78607B68002B01D1012372E27B687A
:10289C001B6803F00103002B00F08780924B5B68F0
:1028AC0003F00C03042B0CD08F4B5B6803F00C0370
:1028BC00082B12D18C4B5B6803F48033B3F5803F4B
:1028CC000BD1894B1B6803F40033002B6CD07B6855
:1028DC005B68002B68D101234CE27B685B68B3F525
:1028EC00803F06D1804B1B687F4A43F480331360D2
:1028FC002EE07B685B68002B0CD17B4B1B687A4A03
:10290C0023F480331360784B1B68774A23F48023BD
:10291C0013601DE07B685B68B3F5A02F0CD1724B84
:10292C001B68714A43F4802313606F4B1B686E4A1B
:10293C0043F4803313600BE06B4B1B686A4A23F43F
:10294C0080331360684B1B68674A23F48023136041
:10295C007B685B68002B13D0FEF7C6FE386108E07D
:10296C00FEF7C2FE02463B69D31A642B01D903233E
:10297C0000E25D4B1B6803F40033002BF0D014E035
:10298C00FEF7B2FE386108E0FEF7AEFE02463B6988
:10299C00D31A642B01D90323ECE1534B1B6803F4CA
:1029AC000033002BF0D100E000BF7B681B6803F004
:1029BC000203002B63D04C4B5B6803F00C03002B21
:1029CC000BD0494B5B6803F00C03082B1CD1464B16
:1029DC005B6803F48033002B16D1434B1B6803F068
:1029EC000203002B05D07B681B69012B01D001234E
:1029FC00C0E13D4B1B6823F0F8027B685B69DB0090
:102A0C00394913430B603AE07B681B69002B20D0DB
:102A1C00364B01221A60FEF767FE386108E0FEF7BC
:102A2C0063FE02463B69D31A022B01D90323A1E1B1
:102A3C002D4B1B6803F00203002BF0D02A4B1B68B4
:102A4C0023F0F8027B685B69DB00274913430B60BA
:102A5C0015E0264B00221A60FEF746FE386108E0AE
:102A6C00FEF742FE02463B69D31A022B01D903231F
:102A7C0080E11D4B1B6803F00203002BF0D17B6837
:102A8C001B6803F00803002B3AD07B689B69002B72
:102A9C0019D0174B01221A60FEF726FE386108E0A8
:102AAC00FEF722FE02463B69D31A022B01D90323FF
:102ABC0060E10D4B5B6A03F00203002BF0D00120A8
:102ACC0000F0DAFA1CE00A4B00221A60FEF70CFE4A
:102ADC0038610FE0FEF708FE02463B69D31A022B61
:102AEC0008D9032346E100BF001002400000424217
:102AFC0080044242924B5B6A03F00203002BE9D143
:102B0C007B681B6803F00403002B00F0A6800023F5
:102B1C00FB758B4BDB6903F08053002B0DD1884B7D
:102B2C00DB69874A43F08053D361854BDB6903F043
:102B3C008053BB60BB680123FB75824B1B6803F49D
:102B4C008073002B18D17F4B1B687E4A43F4807333
:102B5C001360FEF7C9FD386108E0FEF7C5FD0246BB
:102B6C003B69D31A642B01D9032303E1754B1B6812
:102B7C0003F48073002BF0D07B68DB68012B06D14B
:102B8C006F4B1B6A6E4A43F0010313622DE07B68A6
:102B9C00DB68002B0CD16A4B1B6A694A23F00103DA
:102BAC001362674B1B6A664A23F0040313621CE032
:102BBC007B68DB68052B0CD1614B1B6A604A43F0C8
:102BCC00040313625E4B1B6A5D4A43F001031362FC
:102BDC000BE05B4B1B6A5A4A23F001031362584B00
:102BEC001B6A574A23F0040313627B68DB68002BD3
:102BFC0015D0FEF779FD38610AE0FEF775FD024647
:102C0C003B69D31A41F28832934201D90323B1E0D4
:102C1C004B4B1B6A03F00203002BEED014E0FEF7C3
:102C2C0063FD38610AE0FEF75FFD02463B69D31A8B
:102C3C0041F28832934201D903239BE0404B1B6A3B
:102C4C0003F00203002BEED1FB7D012B05D13C4B95
:102C5C00DB693B4A23F08053D3617B68DB69002B33
:102C6C0000F08780364B5B6803F00C03082B61D0B7
:102C7C007B68DB69022B46D1334B00221A60FEF7CE
:102C8C0033FD386108E0FEF72FFD02463B69D31A8D
:102C9C00022B01D903236DE0294B1B6803F0007351
:102CAC00002BF0D17B681B6AB3F5803F08D1244B15
:102CBC005B6823F400327B689B68214913434B60AB
:102CCC001F4B5B6823F474127B68196A7B685B6A20
:102CDC000B431B4913434B601B4B01221A60FEF73D
:102CEC0003FD386108E0FEF7FFFC02463B69D31A8E
:102CFC00022B01D903233DE0114B1B6803F0007339
:102D0C00002BF0D035E0104B00221A60FEF7ECFCE3
:102D1C00386108E0FEF7E8FC02463B69D31A022B47
:102D2C0001D9032326E0064B1B6803F00073002B2C
:102D3C00F0D11EE07B68DB69012B07D1012319E080
:102D4C000010024000700040600042420B4B5B6878
:102D5C00FB60FB6803F480327B681B6A9A4206D1E5
:102D6C00FB6803F470127B685B6A9A4201D0012302
:102D7C0000E0002318461837BD4680BD0010024005
:102D8C0080B584B000AF786039607B68002B01D1CE
:102D9C000123D0E06A4B1B6803F007033A689A42A0
:102DAC0010D9674B1B6823F0070265493B68134336
:102DBC000B60634B1B6803F007033A689A4201D01F
:102DCC000123B8E07B681B6803F00203002B20D0C2
:102DDC007B681B6803F00403002B05D0594B5B6820
:102DEC00584A43F4E06353607B681B6803F00803A4
:102DFC00002B05D0534B5B68524A43F4605353602D
:102E0C00504B5B6823F0F0027B689B684D49134381
:102E1C004B607B681B6803F00103002B40D07B6880
:102E2C005B68012B07D1474B1B6803F40033002B65
:102E3C0015D101237FE07B685B68022B07D1414BE6
:102E4C001B6803F00073002B09D1012373E03D4B89
:102E5C001B6803F00203002B01D101236BE0394BFB
:102E6C005B6823F003027B685B68364913434B6055
:102E7C00FEF73AFCF8600AE0FEF736FC0246FB6807
:102E8C00D31A41F28832934201D9032353E02D4BDC
:102E9C005B6803F00C027B685B689B009A42EBD189
:102EAC00274B1B6803F007033A689A4210D2244B55
:102EBC001B6823F0070222493B6813430B60204B2D
:102ECC001B6803F007033A689A4201D0012332E0F1
:102EDC007B681B6803F00403002B08D0194B5B685C
:102EEC0023F4E0627B68DB68164913434B607B6814
:102EFC001B6803F00803002B09D0124B5B6823F40A
:102F0C0060527B681B69DB000E4913434B6000F079
:102F1C0021F802460B4B5B681B0903F00F030A49AF
:102F2C00CB5C22FA03F3094A1360094B1B68184661
:102F3C00FEF798FB002318461037BD4680BD00BF36
:102F4C000020024000100240AC7500080000002078
:102F5C000400002090B48AB000AF294B3C1D0FCB6D
:102F6C0084E80F0040F201233B800023FB61002327
:102F7C00BB6100237B6200237B6100233B62214BFE
:102F8C005B68FB61FB6903F00C03042B02D0082B7C
:102F9C0003D02BE01C4B3B622BE0FB699B0C03F03A
:102FAC000F0328333B4413F8243C7B61FB6903F487
:102FBC008033002B12D0134B5B685B0C03F00103C6
:102FCC0028333B4413F8283CBB617B690E4A03FB56
:102FDC0002F2BB69B2FBF3F37B6204E07B690B4A40
:102FEC0002FB03F37B627B6A3B6202E0084B3B62B1
:102FFC0000BF3B6A18462837BD4690BC704700BFDF
:10300C009C750008001002400024F40000093D00EB
:10301C0000127A0080B400AF024B1B681846BD4604
:10302C0080BC70470000002080B500AFFFF7F2FFB6
:10303C000246054B5B681B0A03F007030349CB5C94
:10304C0022FA03F3184680BD00100240BC7500083C
:10305C0080B500AFFFF7DEFF0246054B5B68DB0A6D
:10306C0003F007030349CB5C22FA03F3184680BD37
:10307C0000100240BC75000880B485B000AF7860C9
:10308C000A4B1B680A4AA2FB03235B0A7A6802FB01
:10309C0003F3FB6000BFFB685A1EFA60002BF9D1EA
:1030AC0000BF00BF1437BD4680BC70470000002035
:1030BC00D34D621080B586B000AF786000233B61C1
:1030CC000023FB607B681B6803F00103002B7DD0A1
:1030DC000023FB754F4BDB6903F08053002B0DD1A4
:1030EC004C4BDB694B4A43F08053D361494BDB6952
:1030FC0003F08053BB60BB680123FB75464B1B6818
:10310C0003F48073002B18D1434B1B68424A43F4E1
:10311C0080731360FEF7E8FA386108E0FEF7E4FA12
:10312C0002463B69D31A642B01D903236DE03A4B59
:10313C001B6803F48073002BF0D0364B1B6A03F42E
:10314C004073FB60FB68002B2ED07B685B6803F43C
:10315C004073FA689A4227D02E4B1B6A23F44073B3
:10316C00FB602E4B01221A602C4B00221A60294A5C
:10317C00FB681362FB6803F00103002B14D0FEF70D
:10318C00B3FA38610AE0FEF7AFFA02463B69D31A8C
:10319C0041F28832934201D9032336E01D4B1B6A5E
:1031AC0003F00203002BEED01A4B1B6A23F440727F
:1031BC007B685B68174913430B62FB7D012B05D1C0
:1031CC00144BDB69134A23F08053D3617B681B6873
:1031DC0003F00203002B08D00E4B5B6823F4404233
:1031EC007B689B680B4913434B607B681B6803F03F
:1031FC001003002B08D0074B5B6823F480027B681C
:10320C00DB68044913434B60002318461837BD464E
:10321C0080BD00BF001002400070004040044242DC
:10322C0080B582B000AF78607B68002B01D10123A0
:10323C0076E07B685B6A002B08D17B685B68B3F532
:10324C00827F09D07B680022DA6105E07B6800226E
:10325C001A617B6800225A617B6800229A627B6843
:10326C0093F85130DBB2002B06D17B68002283F837
:10327C0050207868FDF79AFB7B68022283F8512076
:10328C007B681B681A687B681B6822F040021A6016
:10329C007B685B6803F482727B689B6803F404436D
:1032AC001A437B68DB6803F400631A437B681B6971
:1032BC0003F002031A437B685B6903F001031A43B2
:1032CC007B689B6903F400731A437B68DB6903F02A
:1032DC0038031A437B681B6A03F0800342EA03013C
:1032EC007B689B6A03F400527B681B680A431A6074
:1032FC007B689B691A0C7B681B6802F004025A609D
:10330C007B681B68DA697B681B6822F40062DA61EF
:10331C007B6800225A657B68012283F851200023C8
:10332C0018460837BD4680BD80B582B000AF7860C6
:10333C007B68002B01D101231AE07B68022283F801
:10334C0051207B681B681A687B681B6822F040025E
:10335C001A607868FDF7B8FB7B6800225A657B68B9
:10336C00002283F851207B68002283F85020002330
:10337C0018460837BD4680BD80B588B000AFF860F0
:10338C00B9603B601346FB800023FB77FB6893F826
:10339C005030012B01D1022326E1FB68012283F876
:1033AC005020FEF7A1F9B861FB88FB82FB6893F80B
:1033BC005130DBB2012B02D00223FB770BE1BB684F
:1033CC00002B02D0FB88002B02D10123FB7702E1FA
:1033DC00FB68032283F85120FB6800225A65FB68C6
:1033EC00BA681A63FB68FA889A86FB68FA88DA86E8
:1033FC00FB6800229A63FB6800229A87FB68002214
:10340C00DA87FB6800225A64FB6800221A64FB68A6
:10341C009B68B3F5004F0FD1FB681B681A68FB68FB
:10342C001B6822F040021A60FB681B681A68FB6874
:10343C001B6842F480421A60FB681B681B6803F02F
:10344C004003402B07D0FB681B681A68FB681B689D
:10345C0042F040021A60FB68DB68B3F5006F4BD199
:10346C00FB685B68002B02D0FB8A012B3ED1FB680A
:10347C001B6B1A88FB681B68DA60FB681B6B9A1C59
:10348C00FB681A63FB68DB8E9BB2013B9AB2FB684C
:10349C00DA862BE0FB681B689B6803F00203022BA7
:1034AC0012D1FB681B6B1A88FB681B68DA60FB681F
:1034BC001B6B9A1CFB681A63FB68DB8E9BB2013B8F
:1034CC009AB2FB68DA8611E0FEF70EF90246BB6988
:1034DC00D31A3A689A4203D83B68B3F1FF3F02D142
:1034EC003B68002B02D10323FB7774E0FB68DB8E77
:1034FC009BB2002BCED14CE0FB685B68002B02D05A
:10350C00FB8A012B40D1FB681A6BFB681B680C33E0
:10351C0012781A70FB681B6B5A1CFB681A63FB68E9
:10352C00DB8E9BB2013B9AB2FB68DA862CE0FB681F
:10353C001B689B6803F00203022B13D1FB681A6B08
:10354C00FB681B680C3312781A70FB681B6B5A1CD7
:10355C00FB681A63FB68DB8E9BB2013B9AB2FB687B
:10356C00DA8611E0FEF7C0F80246BB69D31A3A6856
:10357C009A4203D83B68B3F1FF3F02D13B68002B62
:10358C0002D10323FB7726E0FB68DB8E9BB2002B7A
:10359C00CDD1BA693968F86800F010FE0346002BEB
:1035AC0002D0FB6820225A65FB689B68002B0AD16D
:1035BC0000233B61FB681B68DB683B61FB681B6895
:1035CC009B683B613B69FB685B6D002B02D0012360
:1035DC00FB7700E000BFFB68012283F85120FB68F9
:1035EC00002283F85020FB7F18462037BD4680BD53
:1035FC0080B588B002AFF860B9603B601346FB80C1
:10360C000023FB75FB685B68B3F5827F12D1FB6806
:10361C009B68002B0ED1FB68042283F85120FA889A
:10362C003B6800931346BA68B968F86800F0F1F883
:10363C000346EAE0FB6893F85030012B01D10223DA
:10364C00E3E0FB68012283F85020FEF74DF8386167
:10365C00FB6893F85130DBB2012B02D00223FB75CF
:10366C00CAE0BB68002B02D0FB88002B02D10123DF
:10367C00FB75C1E0FB68042283F85120FB68002233
:10368C005A65FB68BA689A63FB68FA889A87FB6884
:10369C00FA88DA87FB6800221A63FB6800229A8694
:1036AC00FB680022DA86FB6800221A64FB680022A1
:1036BC005A64FB689B68B3F5004F0FD1FB681B681D
:1036CC001A68FB681B6822F040021A60FB681B68D2
:1036DC001A68FB681B6822F480421A60FB681B683E
:1036EC001B6803F04003402B07D0FB681B681A686B
:1036FC00FB681B6842F040021A60FB68DB68002B19
:10370C0062D12EE0FB681B689B6803F00103012B60
:10371C0015D1FB681B6803F10C02FB689B6B1278DC
:10372C00D2B21A70FB689B6B5A1CFB689A63FB68DD
:10373C00DB8F9BB2013B9AB2FB68DA8711E0FDF795
:10374C00D3FF02463B69D31A3A689A4203D83B68C6
:10375C00B3F1FF3F02D13B68002B02D10323FB7571
:10376C004AE0FB68DB8F9BB2002BCBD131E0FB68CE
:10377C001B689B6803F00103012B13D1FB681B68CA
:10378C00DA68FB689B6B92B21A80FB689B6B9A1C85
:10379C00FB689A63FB68DB8F9BB2013B9AB2FB68B8
:1037AC00DA8711E0FDF7A0FF02463B69D31A3A68AD
:1037BC009A4203D83B68B3F1FF3F02D13B68002B20
:1037CC0002D10323FB7517E0FB68DB8F9BB2002B48
:1037DC00CDD13A693968F86800F09EFC0346002B9D
:1037EC0002D0FB6820225A65FB685B6D002B02D06F
:1037FC000123FB7500E000BFFB68012283F8512018
:10380C00FB68002283F85020FB7D18461837BD4614
:10381C0080BD80B58CB000AFF860B9607A607B80F9
:10382C000123FB62002387F82B30FB6893F85030A0
:10383C00012B01D102238AE1FB68012283F850207D
:10384C00FDF752FF7862FB6893F8513087F823300C
:10385C00FB685B68FB617B887B8397F82330012BCB
:10386C000FD0FB69B3F5827F07D1FB689B68002BF7
:10387C0003D197F82330042B03D0022387F82B3085
:10388C005BE1BB68002B05D07B68002B02D07B88EA
:10389C00002B03D1012387F82B304EE1FB6893F802
:1038AC005130DBB2042B03D0FB68052283F8512086
:1038BC00FB6800225A65FB687A689A63FB687A8811
:1038CC00DA87FB687A889A87FB68BA681A63FB68A0
:1038DC007A88DA86FB687A889A86FB6800221A64F2
:1038EC00FB6800225A64FB681B681B6803F04003EA
:1038FC00402B07D0FB681B681A68FB681B6842F0FA
:10390C0040021A60FB68DB68B3F5006F78D1FB6886
:10391C005B68002B02D07B8B012B66D1FB681B6B89
:10392C001A88FB681B68DA60FB681B6B9A1CFB68C7
:10393C001A63FB68DB8E9BB2013B9AB2FB68DA869A
:10394C0053E0FB681B689B6803F00203022B1BD13E
:10395C00FB68DB8E9BB2002B16D0FB6A012B13D1BC
:10396C00FB681B6B1A88FB681B68DA60FB681B6BB7
:10397C009A1CFB681A63FB68DB8E9BB2013B9AB204
:10398C00FB68DA860023FB62FB681B689B6803F00C
:10399C000103012B19D1FB68DB8F9BB2002B14D0D8
:1039AC00FB681B68DA68FB689B6B92B21A80FB6839
:1039BC009B6B9A1CFB689A63FB68DB8F9BB2013B89
:1039CC009AB2FB68DA870123FB62FDF78DFE024693
:1039DC007B6AD31ABA6B9A4207D8BB6BB3F1FF3F21
:1039EC0003D0032387F82B30A7E0FB68DB8E9BB258
:1039FC00002BA6D1FB68DB8F9BB2002BA1D17CE006
:103A0C00FB685B68002B02D07B8B012B6BD1FB68B6
:103A1C001A6BFB681B680C3312781A70FB681B6BF3
:103A2C005A1CFB681A63FB68DB8E9BB2013B9AB293
:103A3C00FB68DA8657E0FB681B689B6803F002039F
:103A4C00022B1CD1FB68DB8E9BB2002B17D0FB6AC0
:103A5C00012B14D1FB681A6BFB681B680C331278B2
:103A6C001A70FB681B6B5A1CFB681A63FB68DB8EB5
:103A7C009BB2013B9AB2FB68DA860023FB62FB68BF
:103A8C001B689B6803F00103012B19D1FB68DB8FCA
:103A9C009BB2002B14D0FB681B68DA68FB689B6B2D
:103AAC00D2B21A70FB689B6B5A1CFB689A63FB685A
:103ABC00DB8F9BB2013B9AB2FB68DA870123FB6276
:103ACC00FDF712FE02467B6AD31ABA6B9A4203D8F0
:103ADC00BB6BB3F1FF3F02D1BB6B002B03D10323B4
:103AEC0087F82B3029E0FB68DB8E9BB2002BA2D130
:103AFC00FB68DB8F9BB2002B9DD17A6AB96BF8689F
:103B0C0000F05CFB0346002B06D0012387F82B301A
:103B1C00FB6820225A6510E0FB689B68002B0BD1D8
:103B2C0000237B61FB681B68DB687B61FB681B689F
:103B3C009B687B617B6900E000BFFB68012283F816
:103B4C005120FB68002283F8502097F82B30184640
:103B5C003037BD4680BD000080B487B000AFF86040
:103B6C00B9607A607B800023FB75FB6893F850305A
:103B7C00012B01D1022375E0FB68012283F8502050
:103B8C00FB6893F85130BB75FB685B683B61BB7D90
:103B9C00012B0DD03B69B3F5827F06D1FB689B6886
:103BAC00002B02D1BB7D042B02D00223FB7554E009
:103BBC00BB68002B05D07B68002B02D07B88002BC8
:103BCC0002D10123FB7548E0FB6893F85130DBB25E
:103BDC00042B03D0FB68052283F85120FB680022DC
:103BEC005A65FB68BA681A63FB687A889A86FB6820
:103BFC007A88DA86FB687A689A63FB687A889A878F
:103C0C00FB687A88DA87FB68DB68002B06D0FB68D8
:103C1C00174A1A64FB68174A5A6405E0FB68164A8F
:103C2C001A64FB68154A5A64FB681B685A68FB687F
:103C3C001B6842F0E0025A60FB681B681B6803F0CB
:103C4C004003402B08D0FB681B681A68FB681B6894
:103C5C0042F040021A6000E000BFFB68002283F8CB
:103C6C005020FB7D18461C37BD4680BC704700BFFA
:103C7C00573F0008B73F0008933E0008F73E000886
:103C8C0080B588B000AF78607B681B685B68FB61AF
:103C9C007B681B689B68BB61BB699B0903F00103D4
:103CAC00002B0FD1BB6903F00103002B0AD0FB6979
:103CBC009B0903F00103002B04D07B681B6C786814
:103CCC009847BEE0BB695B0803F00103002B0AD0E8
:103CDC00FB69DB0903F00103002B04D07B685B6CF0
:103CEC0078689847ADE0BB695B0903F00103002BD2
:103CFC0006D1BB699B0903F00103002B00F0A180E6
:103D0C00FB695B0903F00103002B00F09A80BB698F
:103D1C009B0903F00103002B23D07B6893F85130EF
:103D2C00DBB2032B11D07B685B6D43F004027B6824
:103D3C005A6500237B617B681B68DB687B617B6851
:103D4C001B689B687B617B690BE000233B617B6894
:103D5C001B68DB683B617B681B689B683B613B694C
:103D6C006FE0BB695B0903F00103002B14D07B6887
:103D7C005B6D43F001027B685A650023FB607B6836
:103D8C001B689B68FB607B681B681A687B681B68F8
:103D9C0022F040021A60FB687B685B6D002B4FD0F1
:103DAC007B681B685A687B681B6822F0E0025A60CB
:103DBC007B68012283F85120FB6903F00203002B7E
:103DCC0004D1FB6903F00103002B34D07B681B6822
:103DDC005A687B681B6822F003025A607B68DB6CB4
:103DEC00002B11D07B68DB6C174A5A637B68DB6C49
:103DFC001846FEF72DFA0346002B05D07B685B6D49
:103E0C0043F040027B685A657B689B6C002B16D094
:103E1C007B689B6C0C4A5A637B689B6C1846FEF75C
:103E2C0017FA0346002B0AD07B685B6D43F0400207
:103E3C007B685A6503E0786802F018F800E000BF70
:103E4C0000BF2037BD4680BD6B3E000880B483B0F8
:103E5C0000AF786000BF0C37BD4680BC704780B5A2
:103E6C0084B000AF78607B685B6AFB60FB68002203
:103E7C00DA87FB680022DA86F86801F0F7FF00BFEA
:103E8C001037BD4680BD80B582B000AF78607B68CE
:103E9C001B6803F10C027B689B6B1278D2B21A7010
:103EAC007B689B6B5A1C7B689A637B68DB8F9BB22D
:103EBC00013B9AB27B68DA877B68DB8F9BB2002B65
:103ECC000FD17B681B685A687B681B6822F0600204
:103EDC005A607B68DB8E9BB2002B02D1786800F0B5
:103EEC008BF900BF0837BD4680BD80B582B000AFEE
:103EFC0078607B681A6B7B681B680C3312781A70BD
:103F0C007B681B6B5A1C7B681A637B68DB8E9BB2CD
:103F1C00013B9AB27B68DA867B68DB8E9BB2002B06
:103F2C000FD17B681B685A687B681B6822F0800283
:103F3C005A607B68DB8F9BB2002B02D1786800F053
:103F4C005BF900BF0837BD4680BD80B582B000AFBD
:103F5C0078607B681B68DA687B689B6B92B21A800E
:103F6C007B689B6B9A1C7B689A637B68DB8F9BB22C
:103F7C00013B9AB27B68DA877B68DB8F9BB2002BA4
:103F8C000FD17B681B685A687B681B6822F0400263
:103F9C005A607B68DB8E9BB2002B02D1786800F0F4
:103FAC002BF900BF0837BD4680BD80B582B000AF8D
:103FBC0078607B681B6B1A887B681B68DA607B688F
:103FCC001B6B9A1C7B681A637B68DB8E9BB2013B74
:103FDC009AB27B68DA867B68DB8E9BB2002B0FD1A2
:103FEC007B681B685A687B681B6822F080025A60E9
:103FFC007B68DB8F9BB2002B02D1786800F0FCF859
:10400C0000BF0837BD4680BD80B588B000AFF860F2
:10401C00B9603B601346FB71FDF766FB0246BB6A59
:10402C009B1A3A681344FB61FDF75EFBB861394B90
:10403C001B685B011B0DFA6902FB03F37B6154E007
:10404C003B68B3F1FF3F50D0FDF74EFB0246BB6916
:10405C00D31AFA699A4202D9FB69002B3DD1FB684D
:10406C001B685A68FB681B6822F0E0025A60FB6808
:10407C005B68B3F5827F11D1FB689B68B3F5004F89
:10408C0004D0FB689B68B3F5806F07D1FB681B6895
:10409C001A68FB681B6822F040021A60FB689B6A76
:1040AC00B3F5005F0FD1FB681B681A68FB681B68CF
:1040BC0022F400521A60FB681B681A68FB681B68C4
:1040CC0042F400521A60FB68012283F85120FB680D
:1040DC00002283F85020032317E07B69002B01D1C9
:1040EC000023FB617B69013B7B61FB681B689A6861
:1040FC00BB681340BA689A420CBF01230023DBB2A1
:10410C001A46FB799A429BD1002318462037BD46AC
:10411C0080BD00BF0000002080B586B002AFF86003
:10412C00B9607A60FB685B68B3F5827F11D1FB687C
:10413C009B68B3F5004F04D0FB689B68B3F5806FA8
:10414C0007D1FB681B681A68FB681B6822F04002E9
:10415C001A60FB685B68B3F5827F17D1FB689B68BC
:10416C00B3F5806F12D17B680093BB6800220121EC
:10417C00F868FFF749FF0346002B1AD0FB685B6D0C
:10418C0043F02002FB685A65032313E07B6800931D
:10419C00BB6800228021F868FFF736FF0346002B2E
:1041AC0007D0FB685B6D43F02002FB685A65032364
:1041BC0000E0002318461037BD4680BD80B586B0A0
:1041CC0002AFF860B9607A607B680093BB6800222C
:1041DC008021F868FFF718FF0346002B07D0FB6817
:1041EC005B6D43F02002FB685A65032300E000235B
:1041FC0018461037BD4680BD80B586B000AF7860DC
:10420C00354B1B68354AA2FB03235B0A642202FB75
:10421C0003F33B61FDF768FA78617B681B685A68A9
:10422C007B681B6822F020025A603B69002B06D188
:10423C007B685B6D43F020027B685A6509E03B6943
:10424C00013B3B617B681B689B6803F00203002BFE
:10425C00EBD07A6964217868FFF7B0FF0346002B36
:10426C0005D07B685B6D43F020027B685A657B68E8
:10427C009B68002B0AD10023FB607B681B68DB6802
:10428C00FB607B681B689B68FB60FB687B685B6DF5
:10429C00002B15D17B6893F85130DBB2042B07D17E
:1042AC007B68012283F851207868FFF7CFFD0EE080
:1042BC007B68012283F85120786801F0A3FD06E0A9
:1042CC007B68012283F85120786801F0CFFD00BF94
:1042DC001837BD4680BD00BF00000020F1197605DF
:1042EC0080B582B000AF78607B68002B01D10123D0
:1042FC0041E07B6893F83D30DBB2002B06D17B6844
:10430C00002283F83C207868FCF714FC7B680222BE
:10431C0083F83D207B681A687B6804331946104685
:10432C0000F040FC7B68012283F846207B68012268
:10433C0083F83E207B68012283F83F207B680122B2
:10434C0083F840207B68012283F841207B6801229E
:10435C0083F842207B68012283F843207B6801228A
:10436C0083F844207B68012283F845207B68012276
:10437C0083F83D20002318460837BD4680BD000059
:10438C0080B485B000AF78607B6893F83D30DBB2C9
:10439C00012B01D001233AE07B68022283F83D20F7
:1043AC007B681B68DA687B681B6842F00102DA6084
:1043BC007B681B68184A93420ED07B681B68B3F16C
:1043CC00804F09D07B681B68144A934204D07B68E9
:1043DC001B68134A934211D17B681B689B6803F0DE
:1043EC000703FB60FB68062B10D07B681B681A6800
:1043FC007B681B6842F001021A6007E07B681B684F
:10440C001A687B681B6842F001021A600023184688
:10441C001437BD4680BC7047002C0140000400409E
:10442C000008004080B582B000AF78607B68002B3C
:10443C0001D1012341E07B6893F83D30DBB2002BC6
:10444C0006D17B68002283F83C20786800F039F8AC
:10445C007B68022283F83D207B681A687B680433F2
:10446C001946104600F09EFB7B68012283F846201B
:10447C007B68012283F83E207B68012283F83F2071
:10448C007B68012283F840207B68012283F841205D
:10449C007B68012283F842207B68012283F8432049
:1044AC007B68012283F844207B68012283F8452035
:1044BC007B68012283F83D20002318460837BD464F
:1044CC0080BD80B483B000AF786000BF0C37BD46B0
:1044DC0080BC704780B582B000AF786039607B6873
:1044EC00002B01D1012341E07B6893F83D30DBB216
:1044FC00002B06D17B68002283F83C20786800F002
:10450C0039F87B68022283F83D207B681A687B6847
:10451C0004331946104600F045FB7B681B681A688B
:10452C007B681B6822F008021A607B681B6819689C
:10453C007B681B683A680A431A607B68012283F81F
:10454C0046207B68012283F83E207B68012283F899
:10455C003F207B68012283F842207B68012283F88C
:10456C0043207B68012283F83D200023184608373E
:10457C00BD4680BD80B483B000AF786000BF0C37FF
:10458C00BD4680BC7047000080B584B000AF786039
:10459C0039607B6893F83E30FB737B6893F83F304F
:1045AC00BB737B6893F842307B737B6893F8433022
:1045BC003B73FB7B012B08D1BB7B012B05D17B7B98
:1045CC00012B02D13B7B012B01D001232BE07B681B
:1045DC00022283F83E207B68022283F83F207B680E
:1045EC00022283F842207B68022283F843207B68F6
:1045FC001B6801220021184600F054FD7B681B68E3
:10460C0001220421184600F04DFD7B681B68084A06
:10461C00934207D17B681B685A6C7B681B6842F419
:10462C0000425A64002318461037BD4680BD00BFB7
:10463C00002C014080B582B000AF78607B681B68AD
:10464C001B6903F00203022B22D17B681B68DB6819
:10465C0003F00203022B1BD17B681B686FF0020274
:10466C001A617B6801221A777B681B689B6903F0CF
:10467C000303002B03D0786800F078FA05E0786823
:10468C0000F06BFA786800F07AFA7B6800221A77EF
:10469C007B681B681B6903F00403042B22D17B6825
:1046AC001B68DB6803F00403042B1BD17B681B68BD
:1046BC006FF004021A617B6802221A777B681B6810
:1046CC009B6903F44073002B03D0786800F04EFA1A
:1046DC0005E0786800F041FA786800F050FA7B68E1
:1046EC0000221A777B681B681B6903F00803082BF0
:1046FC0022D17B681B68DB6803F00803082B1BD1F5
:10470C007B681B686FF008021A617B6804221A77B9
:10471C007B681B68DB6903F00303002B03D078680C
:10472C0000F024FA05E0786800F017FA786800F0D9
:10473C0026FA7B6800221A777B681B681B6903F0DA
:10474C001003102B22D17B681B68DB6803F010036D
:10475C00102B1BD17B681B686FF010021A617B68F1
:10476C0008221A777B681B68DB6903F44073002B03
:10477C0003D0786800F0FAF905E0786800F0EDF9FC
:10478C00786800F0FCF97B6800221A777B681B685C
:10479C001B6903F00103012B0ED17B681B68DB68DE
:1047AC0003F00103012B07D17B681B686FF001023A
:1047BC001A61786800F0C8F97B681B681B6903F004
:1047CC008003802B0ED17B681B68DB6803F08003B1
:1047DC00802B07D17B681B686FF080021A617868A8
:1047EC0000F0EBFC7B681B681B6903F04003402B5B
:1047FC000ED17B681B68DB6803F04003402B07D1AC
:10480C007B681B686FF040021A61786800F0C0F991
:10481C007B681B681B6903F02003202B0ED17B687F
:10482C001B68DB6803F02003202B07D17B681B6817
:10483C006FF020021A61786800F0B6FC00BF0837F0
:10484C00BD4680BD80B584B000AFF860B9607A60B9
:10485C00FB6893F83C30012B01D10223ACE0FB68E0
:10486C00012283F83C207B680C2B00F29F8001A274
:10487C0052F823F0B5480008B9490008B9490008B6
:10488C00B9490008F5480008B9490008B9490008B9
:10489C00B949000837490008B9490008B949000866
:1048AC00B949000877490008FB681B68B9681846C5
:1048BC0000F0DAF9FB681B689A69FB681B6842F028
:1048CC0008029A61FB681B689A69FB681B6822F0F6
:1048DC0004029A61FB681B689969BB681A69FB68DA
:1048EC001B680A439A6162E0FB681B68B96818464A
:1048FC0000F020FAFB681B689A69FB681B6842F49D
:10490C0000629A61FB681B689A69FB681B6822F459
:10491C0080629A61FB681B689969BB681B691A0203
:10492C00FB681B680A439A6141E0FB681B68B96825
:10493C00184600F069FAFB681B68DA69FB681B68AB
:10494C0042F00802DA61FB681B68DA69FB681B68D5
:10495C0022F00402DA61FB681B68D969BB681A692A
:10496C00FB681B680A43DA6121E0FB681B68B968C5
:10497C00184600F0B3FAFB681B68DA69FB681B6821
:10498C0042F40062DA61FB681B68DA69FB681B6839
:10499C0022F48062DA61FB681B68D969BB681B6909
:1049AC001A02FB681B680A43DA6100E000BFFB686F
:1049BC00002283F83C20002318461037BD4680BDEA
:1049CC0080B584B000AF786039607B6893F83C3078
:1049DC00012B01D10223B3E07B68012283F83C2038
:1049EC007B68022283F83D207B681B689B68FB6018
:1049FC00FB6823F07703FB60FB6823F47F43FB60C9
:104A0C007B681B68FA689A603B681B68B3F5005FAB
:104A1C003ED0B3F5005F00F28780B3F5805F00F005
:104A2C008580B3F5805F7FD8702B1AD0702B7BD824
:104A3C00602B50D0602B77D8502B3CD0502B73D898
:104A4C00402B58D0402B6FD8302B64D0302B6BD8E8
:104A5C00202B60D0202B67D8002B5CD0102B5AD089
:104A6C0062E07B6818683B6899683B685A683B68E9
:104A7C00DB6800F0F8FA7B681B689B68FB60FB68DE
:104A8C0043F07703FB607B681B68FA689A604EE022
:104A9C007B6818683B6899683B685A683B68DB68B8
:104AAC0000F0E1FA7B681B689A687B681B6842F42B
:104ABC0080429A603BE07B6818683B6859683B68A9
:104ACC00DB681A4600F058FA7B681B6850211846C0
:104ADC0000F0AFFA2BE07B6818683B6859683B68BC
:104AEC00DB681A4600F076FA7B681B686021184672
:104AFC0000F09FFA1BE07B6818683B6859683B68BC
:104B0C00DB681A4600F038FA7B681B6840211846AF
:104B1C0000F08FFA0BE07B681A683B681B6819463B
:104B2C00104600F086FA02E000BF00E000BF7B6890
:104B3C00012283F83D207B68002283F83C2000236F
:104B4C0018461037BD4680BD80B483B000AF786086
:104B5C0000BF0C37BD4680BC704780B483B000AF3B
:104B6C00786000BF0C37BD4680BC704780B483B002
:104B7C0000AF786000BF0C37BD4680BC704780B476
:104B8C0083B000AF786000BF0C37BD4680BC704767
:104B9C0080B483B000AF786000BF0C37BD4680BCDA
:104BAC007047000080B485B000AF786039607B68D6
:104BBC001B68FB607B68294A93420BD07B68B3F17E
:104BCC00804F07D07B68264A934203D07B68254AE6
:104BDC00934208D1FB6823F07003FB603B685B6871
:104BEC00FA681343FB607B681C4A93420BD07B68CA
:104BFC00B3F1804F07D07B68194A934203D07B688E
:104C0C00184A934208D1FB6823F44073FB603B685D
:104C1C00DB68FA681343FB60FB6823F080023B6897
:104C2C005B691343FB607B68FA681A603B689A689F
:104C3C007B68DA623B681A687B689A627B68074A11
:104C4C00934203D13B681A697B681A637B68012223
:104C5C005A6100BF1437BD4680BC7047002C014020
:104C6C00000400400008004080B487B000AF7860BA
:104C7C0039607B681B6A23F001027B681A627B68CF
:104C8C001B6A7B617B685B683B617B689B69FB6033
:104C9C00FB6823F07003FB60FB6823F00303FB60ED
:104CAC003B681B68FA681343FB607B6923F00203C3
:104CBC007B613B689B687A6913437B617B681C4A08
:104CCC0093420CD17B6923F008037B613B68DB6862
:104CDC007A6913437B617B6923F004037B617B68F6
:104CEC00134A934211D13B6923F480733B613B69B6
:104CFC0023F400733B613B685B693A6913433B6186
:104D0C003B689B693A6913433B617B683A695A601B
:104D1C007B68FA689A613B685A687B685A637B685F
:104D2C007A691A6200BF1C37BD4680BC704700BF51
:104D3C00002C014080B487B000AF786039607B688C
:104D4C001B6A23F010027B681A627B681B6A7B610A
:104D5C007B685B683B617B689B69FB60FB6823F449
:104D6C00E043FB60FB6823F44073FB603B681B680B
:104D7C001B02FA681343FB607B6923F020037B6101
:104D8C003B689B681B017A6913437B617B681D4AF6
:104D9C0093420DD17B6923F080037B613B68DB6818
:104DAC001B017A6913437B617B6923F040037B61B0
:104DBC007B68144A934213D13B6923F480633B61B3
:104DCC003B6923F400633B613B685B699B003A6978
:104DDC0013433B613B689B699B003A6913433B61FE
:104DEC007B683A695A607B68FA689A613B685A68D2
:104DFC007B689A637B687A691A6200BF1C37BD4670
:104E0C0080BC7047002C014080B487B000AF786044
:104E1C0039607B681B6A23F480727B681A627B683A
:104E2C001B6A7B617B685B683B617B68DB69FB6051
:104E3C00FB6823F07003FB60FB6823F00303FB604B
:104E4C003B681B68FA681343FB607B6923F40073AF
:104E5C007B613B689B681B027A6913437B617B68AF
:104E6C001D4A93420DD17B6923F400637B613B683F
:104E7C00DB681B027A6913437B617B6923F48063D3
:104E8C007B617B68144A934213D13B6923F48053B2
:104E9C003B613B6923F400533B613B685B691B013D
:104EAC003A6913433B613B689B691B013A691343A5
:104EBC003B617B683A695A607B68FA68DA613B68E7
:104ECC005A687B68DA637B687A691A6200BF1C37A0
:104EDC00BD4680BC704700BF002C014080B487B039
:104EEC0000AF786039607B681B6A23F480527B6862
:104EFC001A627B681B6A3B617B685B687B617B68C1
:104F0C00DB69FB60FB6823F4E043FB60FB6823F484
:104F1C004073FB603B681B681B02FA681343FB6021
:104F2C003B6923F400533B613B689B681B033A6964
:104F3C0013433B617B680F4A934209D17B6923F48D
:104F4C0080437B613B685B699B017A6913437B619E
:104F5C007B687A695A607B68FA68DA613B685A68E0
:104F6C007B681A647B683A691A6200BF1C37BD46BD
:104F7C0080BC7047002C014080B487B000AFF86053
:104F8C00B9607A60FB681B6A7B61FB681B6A23F063
:104F9C000102FB681A62FB689B693B613B6923F069
:104FAC00F0033B617B681B013A6913433B617B69EE
:104FBC0023F00A037B617A69BB6813437B61FB684E
:104FCC003A699A61FB687A691A6200BF1C37BD4660
:104FDC0080BC704780B487B000AFF860B9607A606D
:104FEC00FB681B6A23F01002FB681A62FB689B6962
:104FFC007B61FB681B6A3B617B6923F470437B61BB
:10500C007B681B037A6913437B613B6923F0A00324
:10501C003B61BB681B013A6913433B61FB687A69CE
:10502C009A61FB683A691A6200BF1C37BD4680BCA6
:10503C00704780B485B000AF786039607B689B683E
:10504C00FB60FB6823F07003FB603A68FB6813435A
:10505C0043F00703FB607B68FA689A6000BF143763
:10506C00BD4680BC704780B487B000AFF860B960B3
:10507C007A603B60FB689B687B617B6923F47F43B0
:10508C007B613B681A027B681A43BB6813437A69DD
:10509C0013437B61FB687A699A6000BF1C37BD467D
:1050AC0080BC704780B487B000AFF860B9607A609C
:1050BC00BB6803F01F03012202FA03F37B61FB6858
:1050CC001A6A7B69DB431A40FB681A62FB681A6A2E
:1050DC00BB6803F01F03796801FA03F31A43FB68FA
:1050EC001A6200BF1C37BD4680BC704780B485B0C7
:1050FC0000AF786039607B6893F83C30012B01D1AC
:10510C00022346E07B68012283F83C207B68022264
:10511C0083F83D207B681B685B68FB607B681B68C1
:10512C009B68BB60FB6823F07003FB603B681B68EB
:10513C00FA681343FB607B681B68FA685A607B68EB
:10514C001B68164A93420ED07B681B68B3F1804FE4
:10515C0009D07B681B68124A934204D07B681B6899
:10516C00104A93420CD1BB6823F08003BB603B68B0
:10517C005B68BA681343BB607B681B68BA689A604B
:10518C007B68012283F83D207B68002283F83C2059
:10519C00002318461437BD4680BC7047002C0140D4
:1051AC00000400400008004080B483B000AF786079
:1051BC0000BF0C37BD4680BC704780B483B000AFD5
:1051CC00786000BF0C37BD4680BC704780B582B09C
:1051DC0000AF78607B68002B01D101233FE07B6836
:1051EC0093F83D30DBB2002B06D17B68002283F8AC
:1051FC003C207868FBF71CFD7B68242283F83D205B
:10520C007B681B68DA687B681B6822F40052DA60E2
:10521C00786800F08FFC7B681B681A697B681B68D8
:10522C0022F490421A617B681B685A697B681B6880
:10523C0022F02A025A617B681B68DA687B681B685B
:10524C0042F40052DA607B6800221A647B682022E8
:10525C0083F83D207B68202283F83E2000231846EB
:10526C000837BD4680BD80B58AB002AFF860B96022
:10527C003B601346FB8000237B61FB6893F83D3059
:10528C00DBB2202B7CD1BB68002B02D0FB88002B1F
:10529C0001D1012375E0FB6893F83C30012B01D15F
:1052AC0002236EE0FB68012283F83C20FB6800229D
:1052BC001A64FB68212283F83D20FCF715FA78610B
:1052CC00FB68FA889A84FB68FA88DA84FB689B6826
:1052DC00B3F5805F08D1FB681B69002B04D1002358
:1052EC00FB61BB68BB6103E0BB68FB610023BB6176
:1052FC00FB68002283F83C202AE03B6800937B6922
:10530C0000228021F86800F041FA0346002B01D0FE
:10531C00032336E0FB69002B0BD1BB691B881A46B3
:10532C00FB681B68C2F308025A60BB690233BB619D
:10533C0007E0FB691A78FB681B685A60FB6901334C
:10534C00FB61FB68DB8C9BB2013B9AB2FB68DA8495
:10535C00FB68DB8C9BB2002BCFD13B6800937B6945
:10536C0000224021F86800F011FA0346002B01D00E
:10537C00032306E0FB68202283F83D20002300E095
:10538C00022318462037BD4680BD80B584B000AFDF
:10539C00F860B9601346FB80FB6893F83E30DBB2D3
:1053AC00202B1DD1BB68002B02D0FB88002B01D118
:1053BC00012316E0FB6893F83C30012B01D102234A
:1053CC000FE0FB68012283F83C20FB6800221A6383
:1053DC00FB881A46B968F86800F022FA034600E028
:1053EC00022318461037BD4680BD000080B58AB038
:1053FC0000AF78607B681B681B687B627B681B68EE
:10540C00DB683B627B681B685B69FB610023BB61EB
:10541C0000237B617B6A03F00F03BB61BB69002B2C
:10542C000DD17B6A03F02003002B08D03B6A03F0FC
:10543C002003002B03D0786800F0D2FA7BE1BB6923
:10544C00002B00F0B180FB6903F00103002B05D1A8
:10545C003B6A03F49073002B00F0A6807B6A03F088
:10546C000103002B0AD03B6A03F48073002B05D098
:10547C007B681B6C43F001027B681A647B6A03F047
:10548C000403002B0AD0FB6903F00103002B05D0A9
:10549C007B681B6C43F002027B681A647B6A03F026
:1054AC000203002B0AD0FB6903F00103002B05D08B
:1054BC007B681B6C43F004027B681A647B6A03F004
:1054CC000803002B0FD03B6A03F02003002B04D100
:1054DC00FB6903F00103002B05D07B681B6C43F0C8
:1054EC0008027B681A647B681B6C002B00F01E8121
:1054FC007B6A03F02003002B07D03B6A03F02003E8
:10550C00002B02D0786800F06BFA7B681B685B6933
:10551C0003F04003002B14BF01230023DBB27B619B
:10552C007B681B6C03F00803002B02D17B69002BFA
:10553C0031D0786800F0ADF97B681B685B6903F0CB
:10554C004003002B23D07B681B685A697B681B685F
:10555C0022F040025A617B689B6B002B13D07B6856
:10556C009B6B764A5A637B689B6B1846FCF770FE04
:10557C000346002B16D07B689B6B5B6B7A68926B37
:10558C00104698470EE0786800F0ECF80AE078686E
:10559C0000F0E8F806E0786800F0E4F87B68002298
:1055AC001A64C3E000BFC1E07B681B6B012B40F0A9
:1055BC00A1807B6A03F01003002B00F09B803B6AF8
:1055CC0003F01003002B00F095800023FB607B6838
:1055DC001B681B68FB607B681B685B68FB60FB6877
:1055EC007B681B685B6903F04003002B4ED07B6823
:1055FC009B6B1B685B683B823B8A002B00F098809E
:10560C007B689B8D3A8A9A4280F092807B683A8ABA
:10561C00DA857B689B6B9B69202B2BD07B681B6886
:10562C00DA687B681B6822F48072DA607B681B681E
:10563C005A697B681B6822F001025A617B681B68FF
:10564C005A697B681B6822F040025A617B682022F1
:10565C0083F83E207B6800221A637B681B68DA683B
:10566C007B681B6822F01002DA607B689B6B184623
:10567C00FCF7B3FD7B689A8D7B68DB8D9BB2D31AEC
:10568C009BB21946786800F076F851E07B689A8DE9
:10569C007B68DB8D9BB2D31A7B827B68DB8D9BB2E4
:1056AC00002B47D07B8A002B44D07B681B68DA68C0
:1056BC007B681B6822F49072DA607B681B685A69FD
:1056CC007B681B6822F001025A617B68202283F8F8
:1056DC003E207B6800221A637B681B68DA687B6853
:1056EC001B6822F01002DA607B8A1946786800F099
:1056FC0042F81FE07B6A03F08003002B08D03B6A62
:10570C0003F08003002B03D0786800F002F912E05C
:10571C007B6A03F04003002B0DD03B6A03F040037F
:10572C00002B08D0786800F043F904E000BF02E0D9
:10573C0000BF00E000BF2837BD4680BDF758000809
:10574C0080B483B000AF786000BF0C37BD4680BC1E
:10575C00704780B483B000AF786000BF0C37BD4693
:10576C0080BC704780B483B000AF786000BF0C374A
:10577C00BD4680BC704780B483B000AF78600B46E8
:10578C007B8000BF0C37BD4680BC704780B584B0B1
:10579C0000AFF860B9603B601346FB712CE0BB694D
:1057AC00B3F1FF3F28D0BB69002B07D0FBF79CFF60
:1057BC0002463B68D31ABA699A421DD2FB681B6831
:1057CC00DA68FB681B6822F4D072DA60FB681B682D
:1057DC005A69FB681B6822F001025A61FB6820229F
:1057EC0083F83D20FB68202283F83E20FB680022D2
:1057FC0083F83C2003230FE0FB681B681A68BB6826
:10580C001340BA689A420CBF01230023DBB21A463C
:10581C00FB799A42C3D0002318461037BD4680BD91
:10582C0080B485B000AFF860B9601346FB80FB68AC
:10583C00BA689A62FB68FA889A85FB68FA88DA85F6
:10584C00FB6800221A64FB68222283F83E20FB6866
:10585C00002283F83C20FB681B68DA68FB681B6835
:10586C0042F48072DA60FB681B685A69FB681B683B
:10587C0042F001025A61FB681B68DA68FB681B681E
:10588C0042F02002DA60002318461437BD4680BC73
:10589C00704780B483B000AF78607B681B68DA68AF
:1058AC007B681B6822F49072DA607B681B685A690B
:1058BC007B681B6822F001025A617B681B6B012B11
:1058CC0007D17B681B68DA687B681B6822F01002C2
:1058DC00DA607B68202283F83E207B6800221A6302
:1058EC0000BF0C37BD4680BC704780B584B000AF9C
:1058FC0078607B685B6AFB60FB680022DA85FB687A
:10590C000022DA84F868FFF72DFF00BF1037BD4680
:10591C0080BD80B485B000AF78607B6893F83D3073
:10592C00DBB2212B3ED17B689B68B3F5805F14D131
:10593C007B681B69002B10D17B681B6AFB60FB68C2
:10594C001B881A467B681B68C2F308025A607B6886
:10595C001B6A9A1C7B681A6208E07B681B6A591CDC
:10596C007A6811621A787B681B685A607B68DB8CDA
:10597C009BB2013B9BB27A681946D184002B0FD1A4
:10598C007B681B68DA687B681B6822F08002DA602F
:10599C007B681B68DA687B681B6842F04002DA603F
:1059AC00002300E0022318461437BD4680BC704724
:1059BC0080B582B000AF78607B681B68DA687B6862
:1059CC001B6822F04002DA607B68202283F83D20BD
:1059DC007868FFF7B5FE002318460837BD4680BD32
:1059EC0080B586B000AF78607B6893F83E30DBB250
:1059FC00222B40F099807B689B68B3F5805F17D1B0
:105A0C007B681B69002B13D100237B617B689B6A2D
:105A1C003B617B681B685B689BB2C3F308039AB25B
:105A2C003B691A807B689B6A9A1C7B689A6226E0A9
:105A3C007B689B6A7B6100233B617B689B68B3F549
:105A4C00805F07D07B689B68002B0AD17B681B6941
:105A5C00002B06D17B681B685B68DAB27B691A7015
:105A6C0008E07B681B685B68DBB203F07F03DAB28B
:105A7C007B691A707B689B6A5A1C7B689A627B688C
:105A8C00DB8D9BB2013B9BB27A681946D185002B0A
:105A9C0048D17B681B68DA687B681B6822F020029F
:105AAC00DA607B681B68DA687B681B6822F480729A
:105ABC00DA607B681B685A697B681B6822F00102FC
:105ACC005A617B68202283F83E207B681B6B012B7C
